{
  "address": "0xBECF1729a9B84CDce2C0E9d4813fe8b7DA28eD40",
  "abi": [
    {
      "inputs": [],
      "stateMutability": "nonpayable",
      "type": "constructor"
    },
    {
      "inputs": [
        {
          "internalType": "address",
          "name": "sender",
          "type": "address"
        },
        {
          "internalType": "uint256",
          "name": "tokenId",
          "type": "uint256"
        },
        {
          "internalType": "address",
          "name": "owner",
          "type": "address"
        }
      ],
      "name": "ERC721IncorrectOwner",
      "type": "error"
    },
    {
      "inputs": [
        {
          "internalType": "address",
          "name": "operator",
          "type": "address"
        },
        {
          "internalType": "uint256",
          "name": "tokenId",
          "type": "uint256"
        }
      ],
      "name": "ERC721InsufficientApproval",
      "type": "error"
    },
    {
      "inputs": [
        {
          "internalType": "address",
          "name": "approver",
          "type": "address"
        }
      ],
      "name": "ERC721InvalidApprover",
      "type": "error"
    },
    {
      "inputs": [
        {
          "internalType": "address",
          "name": "operator",
          "type": "address"
        }
      ],
      "name": "ERC721InvalidOperator",
      "type": "error"
    },
    {
      "inputs": [
        {
          "internalType": "address",
          "name": "owner",
          "type": "address"
        }
      ],
      "name": "ERC721InvalidOwner",
      "type": "error"
    },
    {
      "inputs": [
        {
          "internalType": "address",
          "name": "receiver",
          "type": "address"
        }
      ],
      "name": "ERC721InvalidReceiver",
      "type": "error"
    },
    {
      "inputs": [
        {
          "internalType": "address",
          "name": "sender",
          "type": "address"
        }
      ],
      "name": "ERC721InvalidSender",
      "type": "error"
    },
    {
      "inputs": [
        {
          "internalType": "uint256",
          "name": "tokenId",
          "type": "uint256"
        }
      ],
      "name": "ERC721NonexistentToken",
      "type": "error"
    },
    {
      "anonymous": false,
      "inputs": [
        {
          "indexed": true,
          "internalType": "address",
          "name": "owner",
          "type": "address"
        },
        {
          "indexed": true,
          "internalType": "address",
          "name": "approved",
          "type": "address"
        },
        {
          "indexed": true,
          "internalType": "uint256",
          "name": "tokenId",
          "type": "uint256"
        }
      ],
      "name": "Approval",
      "type": "event"
    },
    {
      "anonymous": false,
      "inputs": [
        {
          "indexed": true,
          "internalType": "address",
          "name": "owner",
          "type": "address"
        },
        {
          "indexed": true,
          "internalType": "address",
          "name": "operator",
          "type": "address"
        },
        {
          "indexed": false,
          "internalType": "bool",
          "name": "approved",
          "type": "bool"
        }
      ],
      "name": "ApprovalForAll",
      "type": "event"
    },
    {
      "anonymous": false,
      "inputs": [
        {
          "indexed": false,
          "internalType": "uint256",
          "name": "_fromTokenId",
          "type": "uint256"
        },
        {
          "indexed": false,
          "internalType": "uint256",
          "name": "_toTokenId",
          "type": "uint256"
        }
      ],
      "name": "BatchMetadataUpdate",
      "type": "event"
    },
    {
      "anonymous": false,
      "inputs": [
        {
          "indexed": true,
          "internalType": "uint256",
          "name": "tokenId",
          "type": "uint256"
        },
        {
          "indexed": false,
          "internalType": "string",
          "name": "tokenURI",
          "type": "string"
        }
      ],
      "name": "CreateNFT",
      "type": "event"
    },
    {
      "anonymous": false,
      "inputs": [
        {
          "indexed": false,
          "internalType": "uint256",
          "name": "_tokenId",
          "type": "uint256"
        }
      ],
      "name": "MetadataUpdate",
      "type": "event"
    },
    {
      "anonymous": false,
      "inputs": [
        {
          "indexed": true,
          "internalType": "address",
          "name": "from",
          "type": "address"
        },
        {
          "indexed": true,
          "internalType": "address",
          "name": "to",
          "type": "address"
        },
        {
          "indexed": true,
          "internalType": "uint256",
          "name": "tokenId",
          "type": "uint256"
        }
      ],
      "name": "Transfer",
      "type": "event"
    },
    {
      "inputs": [
        {
          "internalType": "address",
          "name": "to",
          "type": "address"
        },
        {
          "internalType": "uint256",
          "name": "tokenId",
          "type": "uint256"
        }
      ],
      "name": "approve",
      "outputs": [],
      "stateMutability": "nonpayable",
      "type": "function"
    },
    {
      "inputs": [
        {
          "internalType": "address",
          "name": "owner",
          "type": "address"
        }
      ],
      "name": "balanceOf",
      "outputs": [
        {
          "internalType": "uint256",
          "name": "",
          "type": "uint256"
        }
      ],
      "stateMutability": "view",
      "type": "function"
    },
    {
      "inputs": [
        {
          "internalType": "string",
          "name": "_svg",
          "type": "string"
        }
      ],
      "name": "create",
      "outputs": [],
      "stateMutability": "nonpayable",
      "type": "function"
    },
    {
      "inputs": [
        {
          "internalType": "string",
          "name": "_imageURI",
          "type": "string"
        }
      ],
      "name": "formatTokenURI",
      "outputs": [
        {
          "internalType": "string",
          "name": "",
          "type": "string"
        }
      ],
      "stateMutability": "pure",
      "type": "function"
    },
    {
      "inputs": [
        {
          "internalType": "uint256",
          "name": "tokenId",
          "type": "uint256"
        }
      ],
      "name": "getApproved",
      "outputs": [
        {
          "internalType": "address",
          "name": "",
          "type": "address"
        }
      ],
      "stateMutability": "view",
      "type": "function"
    },
    {
      "inputs": [
        {
          "internalType": "address",
          "name": "owner",
          "type": "address"
        },
        {
          "internalType": "address",
          "name": "operator",
          "type": "address"
        }
      ],
      "name": "isApprovedForAll",
      "outputs": [
        {
          "internalType": "bool",
          "name": "",
          "type": "bool"
        }
      ],
      "stateMutability": "view",
      "type": "function"
    },
    {
      "inputs": [],
      "name": "name",
      "outputs": [
        {
          "internalType": "string",
          "name": "",
          "type": "string"
        }
      ],
      "stateMutability": "view",
      "type": "function"
    },
    {
      "inputs": [
        {
          "internalType": "uint256",
          "name": "tokenId",
          "type": "uint256"
        }
      ],
      "name": "ownerOf",
      "outputs": [
        {
          "internalType": "address",
          "name": "",
          "type": "address"
        }
      ],
      "stateMutability": "view",
      "type": "function"
    },
    {
      "inputs": [
        {
          "internalType": "address",
          "name": "from",
          "type": "address"
        },
        {
          "internalType": "address",
          "name": "to",
          "type": "address"
        },
        {
          "internalType": "uint256",
          "name": "tokenId",
          "type": "uint256"
        }
      ],
      "name": "safeTransferFrom",
      "outputs": [],
      "stateMutability": "nonpayable",
      "type": "function"
    },
    {
      "inputs": [
        {
          "internalType": "address",
          "name": "from",
          "type": "address"
        },
        {
          "internalType": "address",
          "name": "to",
          "type": "address"
        },
        {
          "internalType": "uint256",
          "name": "tokenId",
          "type": "uint256"
        },
        {
          "internalType": "bytes",
          "name": "data",
          "type": "bytes"
        }
      ],
      "name": "safeTransferFrom",
      "outputs": [],
      "stateMutability": "nonpayable",
      "type": "function"
    },
    {
      "inputs": [
        {
          "internalType": "address",
          "name": "operator",
          "type": "address"
        },
        {
          "internalType": "bool",
          "name": "approved",
          "type": "bool"
        }
      ],
      "name": "setApprovalForAll",
      "outputs": [],
      "stateMutability": "nonpayable",
      "type": "function"
    },
    {
      "inputs": [
        {
          "internalType": "bytes4",
          "name": "interfaceId",
          "type": "bytes4"
        }
      ],
      "name": "supportsInterface",
      "outputs": [
        {
          "internalType": "bool",
          "name": "",
          "type": "bool"
        }
      ],
      "stateMutability": "view",
      "type": "function"
    },
    {
      "inputs": [
        {
          "internalType": "string",
          "name": "_svg",
          "type": "string"
        }
      ],
      "name": "svgToURI",
      "outputs": [
        {
          "internalType": "string",
          "name": "",
          "type": "string"
        }
      ],
      "stateMutability": "pure",
      "type": "function"
    },
    {
      "inputs": [],
      "name": "symbol",
      "outputs": [
        {
          "internalType": "string",
          "name": "",
          "type": "string"
        }
      ],
      "stateMutability": "view",
      "type": "function"
    },
    {
      "inputs": [],
      "name": "tokenCounter",
      "outputs": [
        {
          "internalType": "uint256",
          "name": "",
          "type": "uint256"
        }
      ],
      "stateMutability": "view",
      "type": "function"
    },
    {
      "inputs": [
        {
          "internalType": "uint256",
          "name": "tokenId",
          "type": "uint256"
        }
      ],
      "name": "tokenURI",
      "outputs": [
        {
          "internalType": "string",
          "name": "",
          "type": "string"
        }
      ],
      "stateMutability": "view",
      "type": "function"
    },
    {
      "inputs": [
        {
          "internalType": "address",
          "name": "from",
          "type": "address"
        },
        {
          "internalType": "address",
          "name": "to",
          "type": "address"
        },
        {
          "internalType": "uint256",
          "name": "tokenId",
          "type": "uint256"
        }
      ],
      "name": "transferFrom",
      "outputs": [],
      "stateMutability": "nonpayable",
      "type": "function"
    }
  ],
  "transactionHash": "0x659aa2e570374ab2d2877892f82619bddebeec03ceb6bf0d4633f7c6e4acad3b",
  "args": [],
  "numDeployments": 1,
  "solcInputHash": "d74fcdd6911d6356248b826b6f5d6390",
  "bytecode": "0x60806040523480156200001157600080fd5b506040518060400160405280600381526020017f4e465400000000000000000000000000000000000000000000000000000000008152506040518060400160405280600381526020017f6e6674000000000000000000000000000000000000000000000000000000000081525081600090816200008f91906200032c565b508060019081620000a191906200032c565b505050600060078190555062000413565b600081519050919050565b7f4e487b7100000000000000000000000000000000000000000000000000000000600052604160045260246000fd5b7f4e487b7100000000000000000000000000000000000000000000000000000000600052602260045260246000fd5b600060028204905060018216806200013457607f821691505b6020821081036200014a5762000149620000ec565b5b50919050565b60008190508160005260206000209050919050565b60006020601f8301049050919050565b600082821b905092915050565b600060088302620001b47fffffffffffffffffffffffffffffffffffffffffffffffffffffffffffffffff8262000175565b620001c0868362000175565b95508019841693508086168417925050509392505050565b6000819050919050565b6000819050919050565b60006200020d620002076200020184620001d8565b620001e2565b620001d8565b9050919050565b6000819050919050565b6200022983620001ec565b62000241620002388262000214565b84845462000182565b825550505050565b600090565b6200025862000249565b620002658184846200021e565b505050565b5b818110156200028d57620002816000826200024e565b6001810190506200026b565b5050565b601f821115620002dc57620002a68162000150565b620002b18462000165565b81016020851015620002c1578190505b620002d9620002d08562000165565b8301826200026a565b50505b505050565b600082821c905092915050565b60006200030160001984600802620002e1565b1980831691505092915050565b60006200031c8383620002ee565b9150826002028217905092915050565b6200033782620000b2565b67ffffffffffffffff811115620003535762000352620000bd565b5b6200035f82546200011b565b6200036c82828562000291565b600060209050601f831160018114620003a457600084156200038f578287015190505b6200039b85826200030e565b8655506200040b565b601f198416620003b48662000150565b60005b82811015620003de57848901518255600182019150602085019450602081019050620003b7565b86831015620003fe5784890151620003fa601f891682620002ee565b8355505b6001600288020188555050505b505050505050565b6129de80620004236000396000f3fe608060405234801561001057600080fd5b506004361061010b5760003560e01c806370a08231116100a2578063b6a46b3b11610071578063b6a46b3b146102dc578063b88d4fde146102f8578063c87b56dd14610314578063d082e38114610344578063e985e9c5146103625761010b565b806370a082311461024257806371aee1931461027257806395d89b41146102a2578063a22cb465146102c05761010b565b806323b872dd116100de57806323b872dd146101aa578063413620d4146101c657806342842e0e146101f65780636352211e146102125761010b565b806301ffc9a71461011057806306fdde0314610140578063081812fc1461015e578063095ea7b31461018e575b600080fd5b61012a60048036038101906101259190611bc9565b610392565b6040516101379190611c11565b60405180910390f35b6101486103f3565b6040516101559190611cbc565b60405180910390f35b61017860048036038101906101739190611d14565b610485565b6040516101859190611d82565b60405180910390f35b6101a860048036038101906101a39190611dc9565b6104a1565b005b6101c460048036038101906101bf9190611e09565b6104b7565b005b6101e060048036038101906101db9190611f91565b6105b9565b6040516101ed9190611cbc565b60405180910390f35b610210600480360381019061020b9190611e09565b610652565b005b61022c60048036038101906102279190611d14565b610672565b6040516102399190611d82565b60405180910390f35b61025c60048036038101906102579190611fda565b610684565b6040516102699190612016565b60405180910390f35b61028c60048036038101906102879190611f91565b61073e565b6040516102999190611cbc565b60405180910390f35b6102aa6107cb565b6040516102b79190611cbc565b60405180910390f35b6102da60048036038101906102d5919061205d565b61085d565b005b6102f660048036038101906102f19190611f91565b610873565b005b610312600480360381019061030d919061213e565b6108f9565b005b61032e60048036038101906103299190611d14565b610916565b60405161033b9190611cbc565b60405180910390f35b61034c610a29565b6040516103599190612016565b60405180910390f35b61037c600480360381019061037791906121c1565b610a2f565b6040516103899190611c11565b60405180910390f35b6000634906490660e01b7bffffffffffffffffffffffffffffffffffffffffffffffffffffffff1916827bffffffffffffffffffffffffffffffffffffffffffffffffffffffff191614806103ec57506103eb82610ac3565b5b9050919050565b60606000805461040290612230565b80601f016020809104026020016040519081016040528092919081815260200182805461042e90612230565b801561047b5780601f106104505761010080835404028352916020019161047b565b820191906000526020600020905b81548152906001019060200180831161045e57829003601f168201915b5050505050905090565b600061049082610ba5565b5061049a82610c2d565b9050919050565b6104b382826104ae610c6a565b610c72565b5050565b600073ffffffffffffffffffffffffffffffffffffffff168273ffffffffffffffffffffffffffffffffffffffff16036105295760006040517f64a0ae920000000000000000000000000000000000000000000000000000000081526004016105209190611d82565b60405180910390fd5b600061053d8383610538610c6a565b610c84565b90508373ffffffffffffffffffffffffffffffffffffffff168173ffffffffffffffffffffffffffffffffffffffff16146105b3578382826040517f64283d7b0000000000000000000000000000000000000000000000000000000081526004016105aa93929190612261565b60405180910390fd5b50505050565b606060006040518060400160405280601a81526020017f646174613a696d6167652f7376672b786d6c3b6261736536342c0000000000008152509050600061061f8460405160200161060b91906122d4565b604051602081830303815290604052610e9e565b9050600082826040516020016106369291906122eb565b6040516020818303038152906040529050809350505050919050565b61066d838383604051806020016040528060008152506108f9565b505050565b600061067d82610ba5565b9050919050565b60008073ffffffffffffffffffffffffffffffffffffffff168273ffffffffffffffffffffffffffffffffffffffff16036106f75760006040517f89c62b640000000000000000000000000000000000000000000000000000000081526004016106ee9190611d82565b60405180910390fd5b600360008373ffffffffffffffffffffffffffffffffffffffff1673ffffffffffffffffffffffffffffffffffffffff168152602001908152602001600020549050919050565b606060006040518060400160405280601d81526020017f646174613a6170706c69636174696f6e2f6a736f6e3b6261736536342c0000008152509050806107a38460405160200161078f919061248b565b604051602081830303815290604052610e9e565b6040516020016107b49291906122eb565b604051602081830303815290604052915050919050565b6060600180546107da90612230565b80601f016020809104026020016040519081016040528092919081815260200182805461080690612230565b80156108535780601f1061082857610100808354040283529160200191610853565b820191906000526020600020905b81548152906001019060200180831161083657829003601f168201915b5050505050905090565b61086f610868610c6a565b8383611016565b5050565b61087f33600754611185565b600061088a826105b9565b905060006108978261073e565b90506108a5600754826111a3565b60016007546108b49190612508565b6007819055506007547f8b774dfb330dc374de534c7da76fe3cec54fb54815b53ab7a38dc3d73eba7640826040516108ec9190611cbc565b60405180910390a2505050565b6109048484846104b7565b610910848484846111ff565b50505050565b606061092182610ba5565b50600060066000848152602001908152602001600020805461094290612230565b80601f016020809104026020016040519081016040528092919081815260200182805461096e90612230565b80156109bb5780601f10610990576101008083540402835291602001916109bb565b820191906000526020600020905b81548152906001019060200180831161099e57829003601f168201915b5050505050905060006109cc6113b6565b905060008151036109e1578192505050610a24565b600082511115610a165780826040516020016109fe9291906122eb565b60405160208183030381529060405292505050610a24565b610a1f846113cd565b925050505b919050565b60075481565b6000600560008473ffffffffffffffffffffffffffffffffffffffff1673ffffffffffffffffffffffffffffffffffffffff16815260200190815260200160002060008373ffffffffffffffffffffffffffffffffffffffff1673ffffffffffffffffffffffffffffffffffffffff16815260200190815260200160002060009054906101000a900460ff16905092915050565b60007f80ac58cd000000000000000000000000000000000000000000000000000000007bffffffffffffffffffffffffffffffffffffffffffffffffffffffff1916827bffffffffffffffffffffffffffffffffffffffffffffffffffffffff19161480610b8e57507f5b5e139f000000000000000000000000000000000000000000000000000000007bffffffffffffffffffffffffffffffffffffffffffffffffffffffff1916827bffffffffffffffffffffffffffffffffffffffffffffffffffffffff1916145b80610b9e5750610b9d82611436565b5b9050919050565b600080610bb1836114a0565b9050600073ffffffffffffffffffffffffffffffffffffffff168173ffffffffffffffffffffffffffffffffffffffff1603610c2457826040517f7e273289000000000000000000000000000000000000000000000000000000008152600401610c1b9190612016565b60405180910390fd5b80915050919050565b60006004600083815260200190815260200160002060009054906101000a900473ffffffffffffffffffffffffffffffffffffffff169050919050565b600033905090565b610c7f83838360016114dd565b505050565b600080610c90846114a0565b9050600073ffffffffffffffffffffffffffffffffffffffff168373ffffffffffffffffffffffffffffffffffffffff1614610cd257610cd18184866116a2565b5b600073ffffffffffffffffffffffffffffffffffffffff168173ffffffffffffffffffffffffffffffffffffffff1614610d6357610d146000856000806114dd565b6001600360008373ffffffffffffffffffffffffffffffffffffffff1673ffffffffffffffffffffffffffffffffffffffff168152602001908152602001600020600082825403925050819055505b600073ffffffffffffffffffffffffffffffffffffffff168573ffffffffffffffffffffffffffffffffffffffff1614610de6576001600360008773ffffffffffffffffffffffffffffffffffffffff1673ffffffffffffffffffffffffffffffffffffffff168152602001908152602001600020600082825401925050819055505b846002600086815260200190815260200160002060006101000a81548173ffffffffffffffffffffffffffffffffffffffff021916908373ffffffffffffffffffffffffffffffffffffffff160217905550838573ffffffffffffffffffffffffffffffffffffffff168273ffffffffffffffffffffffffffffffffffffffff167fddf252ad1be2c89b69c2b068fc378daa952ba7f163c4a11628f55a4df523b3ef60405160405180910390a4809150509392505050565b60606000825103610ec057604051806020016040528060008152509050611011565b60006040518060600160405280604081526020016129696040913990506000600360028551610eef9190612508565b610ef9919061256b565b6004610f05919061259c565b90506000602082610f169190612508565b67ffffffffffffffff811115610f2f57610f2e611e66565b5b6040519080825280601f01601f191660200182016040528015610f615781602001600182028036833780820191505090505b509050818152600183018586518101602084015b81831015610fd0576003830192508251603f8160121c168501518253600182019150603f81600c1c168501518253600182019150603f8160061c168501518253600182019150603f8116850151825360018201915050610f75565b600389510660018114610fea5760028114610ffa57611005565b613d3d60f01b6002830352611005565b603d60f81b60018303525b50505050508093505050505b919050565b600073ffffffffffffffffffffffffffffffffffffffff168273ffffffffffffffffffffffffffffffffffffffff160361108757816040517f5b08ba1800000000000000000000000000000000000000000000000000000000815260040161107e9190611d82565b60405180910390fd5b80600560008573ffffffffffffffffffffffffffffffffffffffff1673ffffffffffffffffffffffffffffffffffffffff16815260200190815260200160002060008473ffffffffffffffffffffffffffffffffffffffff1673ffffffffffffffffffffffffffffffffffffffff16815260200190815260200160002060006101000a81548160ff0219169083151502179055508173ffffffffffffffffffffffffffffffffffffffff168373ffffffffffffffffffffffffffffffffffffffff167f17307eab39ab6107e8899845ad3d59bd9653f200f220920489ca2b5937696c31836040516111789190611c11565b60405180910390a3505050565b61119f828260405180602001604052806000815250611766565b5050565b806006600084815260200190815260200160002090816111c3919061278a565b507ff8e1a15aba9398e019f0b49df1a4fde98ee17ae345cb5f6b5e2c27f5033e8ce7826040516111f39190612016565b60405180910390a15050565b60008373ffffffffffffffffffffffffffffffffffffffff163b11156113b0578273ffffffffffffffffffffffffffffffffffffffff1663150b7a02611243610c6a565b8685856040518563ffffffff1660e01b815260040161126594939291906128b1565b6020604051808303816000875af19250505080156112a157506040513d601f19601f8201168201806040525081019061129e9190612912565b60015b611325573d80600081146112d1576040519150601f19603f3d011682016040523d82523d6000602084013e6112d6565b606091505b50600081510361131d57836040517f64a0ae920000000000000000000000000000000000000000000000000000000081526004016113149190611d82565b60405180910390fd5b805181602001fd5b63150b7a0260e01b7bffffffffffffffffffffffffffffffffffffffffffffffffffffffff1916817bffffffffffffffffffffffffffffffffffffffffffffffffffffffff1916146113ae57836040517f64a0ae920000000000000000000000000000000000000000000000000000000081526004016113a59190611d82565b60405180910390fd5b505b50505050565b606060405180602001604052806000815250905090565b60606113d882610ba5565b5060006113e36113b6565b90506000815111611403576040518060200160405280600081525061142e565b8061140d84611782565b60405160200161141e9291906122eb565b6040516020818303038152906040525b915050919050565b60007f01ffc9a7000000000000000000000000000000000000000000000000000000007bffffffffffffffffffffffffffffffffffffffffffffffffffffffff1916827bffffffffffffffffffffffffffffffffffffffffffffffffffffffff1916149050919050565b60006002600083815260200190815260200160002060009054906101000a900473ffffffffffffffffffffffffffffffffffffffff169050919050565b80806115165750600073ffffffffffffffffffffffffffffffffffffffff168273ffffffffffffffffffffffffffffffffffffffff1614155b1561164a57600061152684610ba5565b9050600073ffffffffffffffffffffffffffffffffffffffff168373ffffffffffffffffffffffffffffffffffffffff161415801561159157508273ffffffffffffffffffffffffffffffffffffffff168173ffffffffffffffffffffffffffffffffffffffff1614155b80156115a457506115a28184610a2f565b155b156115e657826040517fa9fbf51f0000000000000000000000000000000000000000000000000000000081526004016115dd9190611d82565b60405180910390fd5b811561164857838573ffffffffffffffffffffffffffffffffffffffff168273ffffffffffffffffffffffffffffffffffffffff167f8c5be1e5ebec7d5bd14f71427d1e84f3dd0314c0f7b2291e5b200ac8c7c3b92560405160405180910390a45b505b836004600085815260200190815260200160002060006101000a81548173ffffffffffffffffffffffffffffffffffffffff021916908373ffffffffffffffffffffffffffffffffffffffff16021790555050505050565b6116ad838383611850565b61176157600073ffffffffffffffffffffffffffffffffffffffff168373ffffffffffffffffffffffffffffffffffffffff160361172257806040517f7e2732890000000000000000000000000000000000000000000000000000000081526004016117199190612016565b60405180910390fd5b81816040517f177e802f00000000000000000000000000000000000000000000000000000000815260040161175892919061293f565b60405180910390fd5b505050565b6117708383611911565b61177d60008484846111ff565b505050565b60606000600161179184611a0a565b01905060008167ffffffffffffffff8111156117b0576117af611e66565b5b6040519080825280601f01601f1916602001820160405280156117e25781602001600182028036833780820191505090505b509050600082602001820190505b600115611845578080600190039150507f3031323334353637383961626364656600000000000000000000000000000000600a86061a8153600a85816118395761183861253c565b5b049450600085036117f0575b819350505050919050565b60008073ffffffffffffffffffffffffffffffffffffffff168373ffffffffffffffffffffffffffffffffffffffff161415801561190857508273ffffffffffffffffffffffffffffffffffffffff168473ffffffffffffffffffffffffffffffffffffffff1614806118c957506118c88484610a2f565b5b8061190757508273ffffffffffffffffffffffffffffffffffffffff166118ef83610c2d565b73ffffffffffffffffffffffffffffffffffffffff16145b5b90509392505050565b600073ffffffffffffffffffffffffffffffffffffffff168273ffffffffffffffffffffffffffffffffffffffff16036119835760006040517f64a0ae9200000000000000000000000000000000000000000000000000000000815260040161197a9190611d82565b60405180910390fd5b600061199183836000610c84565b9050600073ffffffffffffffffffffffffffffffffffffffff168173ffffffffffffffffffffffffffffffffffffffff1614611a055760006040517f73c6ac6e0000000000000000000000000000000000000000000000000000000081526004016119fc9190611d82565b60405180910390fd5b505050565b600080600090507a184f03e93ff9f4daa797ed6e38ed64bf6a1f0100000000000000008310611a68577a184f03e93ff9f4daa797ed6e38ed64bf6a1f0100000000000000008381611a5e57611a5d61253c565b5b0492506040810190505b6d04ee2d6d415b85acef81000000008310611aa5576d04ee2d6d415b85acef81000000008381611a9b57611a9a61253c565b5b0492506020810190505b662386f26fc100008310611ad457662386f26fc100008381611aca57611ac961253c565b5b0492506010810190505b6305f5e1008310611afd576305f5e1008381611af357611af261253c565b5b0492506008810190505b6127108310611b22576127108381611b1857611b1761253c565b5b0492506004810190505b60648310611b455760648381611b3b57611b3a61253c565b5b0492506002810190505b600a8310611b54576001810190505b80915050919050565b6000604051905090565b600080fd5b600080fd5b60007fffffffff0000000000000000000000000000000000000000000000000000000082169050919050565b611ba681611b71565b8114611bb157600080fd5b50565b600081359050611bc381611b9d565b92915050565b600060208284031215611bdf57611bde611b67565b5b6000611bed84828501611bb4565b91505092915050565b60008115159050919050565b611c0b81611bf6565b82525050565b6000602082019050611c266000830184611c02565b92915050565b600081519050919050565b600082825260208201905092915050565b60005b83811015611c66578082015181840152602081019050611c4b565b60008484015250505050565b6000601f19601f8301169050919050565b6000611c8e82611c2c565b611c988185611c37565b9350611ca8818560208601611c48565b611cb181611c72565b840191505092915050565b60006020820190508181036000830152611cd68184611c83565b905092915050565b6000819050919050565b611cf181611cde565b8114611cfc57600080fd5b50565b600081359050611d0e81611ce8565b92915050565b600060208284031215611d2a57611d29611b67565b5b6000611d3884828501611cff565b91505092915050565b600073ffffffffffffffffffffffffffffffffffffffff82169050919050565b6000611d6c82611d41565b9050919050565b611d7c81611d61565b82525050565b6000602082019050611d976000830184611d73565b92915050565b611da681611d61565b8114611db157600080fd5b50565b600081359050611dc381611d9d565b92915050565b60008060408385031215611de057611ddf611b67565b5b6000611dee85828601611db4565b9250506020611dff85828601611cff565b9150509250929050565b600080600060608486031215611e2257611e21611b67565b5b6000611e3086828701611db4565b9350506020611e4186828701611db4565b9250506040611e5286828701611cff565b9150509250925092565b600080fd5b600080fd5b7f4e487b7100000000000000000000000000000000000000000000000000000000600052604160045260246000fd5b611e9e82611c72565b810181811067ffffffffffffffff82111715611ebd57611ebc611e66565b5b80604052505050565b6000611ed0611b5d565b9050611edc8282611e95565b919050565b600067ffffffffffffffff821115611efc57611efb611e66565b5b611f0582611c72565b9050602081019050919050565b82818337600083830152505050565b6000611f34611f2f84611ee1565b611ec6565b905082815260208101848484011115611f5057611f4f611e61565b5b611f5b848285611f12565b509392505050565b600082601f830112611f7857611f77611e5c565b5b8135611f88848260208601611f21565b91505092915050565b600060208284031215611fa757611fa6611b67565b5b600082013567ffffffffffffffff811115611fc557611fc4611b6c565b5b611fd184828501611f63565b91505092915050565b600060208284031215611ff057611fef611b67565b5b6000611ffe84828501611db4565b91505092915050565b61201081611cde565b82525050565b600060208201905061202b6000830184612007565b92915050565b61203a81611bf6565b811461204557600080fd5b50565b60008135905061205781612031565b92915050565b6000806040838503121561207457612073611b67565b5b600061208285828601611db4565b925050602061209385828601612048565b9150509250929050565b600067ffffffffffffffff8211156120b8576120b7611e66565b5b6120c182611c72565b9050602081019050919050565b60006120e16120dc8461209d565b611ec6565b9050828152602081018484840111156120fd576120fc611e61565b5b612108848285611f12565b509392505050565b600082601f83011261212557612124611e5c565b5b81356121358482602086016120ce565b91505092915050565b6000806000806080858703121561215857612157611b67565b5b600061216687828801611db4565b945050602061217787828801611db4565b935050604061218887828801611cff565b925050606085013567ffffffffffffffff8111156121a9576121a8611b6c565b5b6121b587828801612110565b91505092959194509250565b600080604083850312156121d8576121d7611b67565b5b60006121e685828601611db4565b92505060206121f785828601611db4565b9150509250929050565b7f4e487b7100000000000000000000000000000000000000000000000000000000600052602260045260246000fd5b6000600282049050600182168061224857607f821691505b60208210810361225b5761225a612201565b5b50919050565b60006060820190506122766000830186611d73565b6122836020830185612007565b6122906040830184611d73565b949350505050565b600081905092915050565b60006122ae82611c2c565b6122b88185612298565b93506122c8818560208601611c48565b80840191505092915050565b60006122e082846122a3565b915081905092915050565b60006122f782856122a3565b915061230382846122a3565b91508190509392505050565b7f7b226e616d65223a20224e4654222c0000000000000000000000000000000000600082015250565b6000612345600f83612298565b91506123508261230f565b600f82019050919050565b7f226465736372697074696f6e223a20224d79206669727374204e4654222c0000600082015250565b6000612391601e83612298565b915061239c8261235b565b601e82019050919050565b7f2261747472696275746573223a2022222c000000000000000000000000000000600082015250565b60006123dd601183612298565b91506123e8826123a7565b601182019050919050565b7f22696d616765223a202200000000000000000000000000000000000000000000600082015250565b6000612429600a83612298565b9150612434826123f3565b600a82019050919050565b7f227d000000000000000000000000000000000000000000000000000000000000600082015250565b6000612475600283612298565b91506124808261243f565b600282019050919050565b600061249682612338565b91506124a182612384565b91506124ac826123d0565b91506124b78261241c565b91506124c382846122a3565b91506124ce82612468565b915081905092915050565b7f4e487b7100000000000000000000000000000000000000000000000000000000600052601160045260246000fd5b600061251382611cde565b915061251e83611cde565b9250828201905080821115612536576125356124d9565b5b92915050565b7f4e487b7100000000000000000000000000000000000000000000000000000000600052601260045260246000fd5b600061257682611cde565b915061258183611cde565b9250826125915761259061253c565b5b828204905092915050565b60006125a782611cde565b91506125b283611cde565b92508282026125c081611cde565b915082820484148315176125d7576125d66124d9565b5b5092915050565b60008190508160005260206000209050919050565b60006020601f8301049050919050565b600082821b905092915050565b6000600883026126407fffffffffffffffffffffffffffffffffffffffffffffffffffffffffffffffff82612603565b61264a8683612603565b95508019841693508086168417925050509392505050565b6000819050919050565b600061268761268261267d84611cde565b612662565b611cde565b9050919050565b6000819050919050565b6126a18361266c565b6126b56126ad8261268e565b848454612610565b825550505050565b600090565b6126ca6126bd565b6126d5818484612698565b505050565b5b818110156126f9576126ee6000826126c2565b6001810190506126db565b5050565b601f82111561273e5761270f816125de565b612718846125f3565b81016020851015612727578190505b61273b612733856125f3565b8301826126da565b50505b505050565b600082821c905092915050565b600061276160001984600802612743565b1980831691505092915050565b600061277a8383612750565b9150826002028217905092915050565b61279382611c2c565b67ffffffffffffffff8111156127ac576127ab611e66565b5b6127b68254612230565b6127c18282856126fd565b600060209050601f8311600181146127f457600084156127e2578287015190505b6127ec858261276e565b865550612854565b601f198416612802866125de565b60005b8281101561282a57848901518255600182019150602085019450602081019050612805565b868310156128475784890151612843601f891682612750565b8355505b6001600288020188555050505b505050505050565b600081519050919050565b600082825260208201905092915050565b60006128838261285c565b61288d8185612867565b935061289d818560208601611c48565b6128a681611c72565b840191505092915050565b60006080820190506128c66000830187611d73565b6128d36020830186611d73565b6128e06040830185612007565b81810360608301526128f28184612878565b905095945050505050565b60008151905061290c81611b9d565b92915050565b60006020828403121561292857612927611b67565b5b6000612936848285016128fd565b91505092915050565b60006040820190506129546000830185611d73565b6129616020830184612007565b939250505056fe4142434445464748494a4b4c4d4e4f505152535455565758595a6162636465666768696a6b6c6d6e6f707172737475767778797a303132333435363738392b2fa264697066735822122085a3b60e08d9bb776ec3426a1d16cd643e312cd69547017e71eac52306bdaf8064736f6c63430008140033",
  "devdoc": {
    "errors": {
      "ERC721IncorrectOwner(address,uint256,address)": [
        {
          "details": "Indicates an error related to the ownership over a particular token. Used in transfers.",
          "params": {
            "owner": "Address of the current owner of a token.",
            "sender": "Address whose tokens are being transferred.",
            "tokenId": "Identifier number of a token."
          }
        }
      ],
      "ERC721InsufficientApproval(address,uint256)": [
        {
          "details": "Indicates a failure with the `operator`s approval. Used in transfers.",
          "params": {
            "operator": "Address that may be allowed to operate on tokens without being their owner.",
            "tokenId": "Identifier number of a token."
          }
        }
      ],
      "ERC721InvalidApprover(address)": [
        {
          "details": "Indicates a failure with the `approver` of a token to be approved. Used in approvals.",
          "params": {
            "approver": "Address initiating an approval operation."
          }
        }
      ],
      "ERC721InvalidOperator(address)": [
        {
          "details": "Indicates a failure with the `operator` to be approved. Used in approvals.",
          "params": {
            "operator": "Address that may be allowed to operate on tokens without being their owner."
          }
        }
      ],
      "ERC721InvalidOwner(address)": [
        {
          "details": "Indicates that an address can't be an owner. For example, `address(0)` is a forbidden owner in EIP-20. Used in balance queries.",
          "params": {
            "owner": "Address of the current owner of a token."
          }
        }
      ],
      "ERC721InvalidReceiver(address)": [
        {
          "details": "Indicates a failure with the token `receiver`. Used in transfers.",
          "params": {
            "receiver": "Address to which tokens are being transferred."
          }
        }
      ],
      "ERC721InvalidSender(address)": [
        {
          "details": "Indicates a failure with the token `sender`. Used in transfers.",
          "params": {
            "sender": "Address whose tokens are being transferred."
          }
        }
      ],
      "ERC721NonexistentToken(uint256)": [
        {
          "details": "Indicates a `tokenId` whose `owner` is the zero address.",
          "params": {
            "tokenId": "Identifier number of a token."
          }
        }
      ]
    },
    "events": {
      "Approval(address,address,uint256)": {
        "details": "Emitted when `owner` enables `approved` to manage the `tokenId` token."
      },
      "ApprovalForAll(address,address,bool)": {
        "details": "Emitted when `owner` enables or disables (`approved`) `operator` to manage all of its assets."
      },
      "BatchMetadataUpdate(uint256,uint256)": {
        "details": "This event emits when the metadata of a range of tokens is changed. So that the third-party platforms such as NFT market could timely update the images and related attributes of the NFTs."
      },
      "MetadataUpdate(uint256)": {
        "details": "This event emits when the metadata of a token is changed. So that the third-party platforms such as NFT market could timely update the images and related attributes of the NFT."
      },
      "Transfer(address,address,uint256)": {
        "details": "Emitted when `tokenId` token is transferred from `from` to `to`."
      }
    },
    "kind": "dev",
    "methods": {
      "approve(address,uint256)": {
        "details": "See {IERC721-approve}."
      },
      "balanceOf(address)": {
        "details": "See {IERC721-balanceOf}."
      },
      "getApproved(uint256)": {
        "details": "See {IERC721-getApproved}."
      },
      "isApprovedForAll(address,address)": {
        "details": "See {IERC721-isApprovedForAll}."
      },
      "name()": {
        "details": "See {IERC721Metadata-name}."
      },
      "ownerOf(uint256)": {
        "details": "See {IERC721-ownerOf}."
      },
      "safeTransferFrom(address,address,uint256)": {
        "details": "See {IERC721-safeTransferFrom}."
      },
      "safeTransferFrom(address,address,uint256,bytes)": {
        "details": "See {IERC721-safeTransferFrom}."
      },
      "setApprovalForAll(address,bool)": {
        "details": "See {IERC721-setApprovalForAll}."
      },
      "supportsInterface(bytes4)": {
        "details": "See {IERC165-supportsInterface}"
      },
      "symbol()": {
        "details": "See {IERC721Metadata-symbol}."
      },
      "tokenURI(uint256)": {
        "details": "See {IERC721Metadata-tokenURI}."
      },
      "transferFrom(address,address,uint256)": {
        "details": "See {IERC721-transferFrom}."
      }
    },
    "version": 1
  },
  "userdoc": {
    "kind": "user",
    "methods": {},
    "version": 1
  },
  "storageLayout": {
    "storage": [
      {
        "astId": 201,
        "contract": "contracts/nft.sol:nft",
        "label": "_name",
        "offset": 0,
        "slot": "0",
        "type": "t_string_storage"
      },
      {
        "astId": 203,
        "contract": "contracts/nft.sol:nft",
        "label": "_symbol",
        "offset": 0,
        "slot": "1",
        "type": "t_string_storage"
      },
      {
        "astId": 207,
        "contract": "contracts/nft.sol:nft",
        "label": "_owners",
        "offset": 0,
        "slot": "2",
        "type": "t_mapping(t_uint256,t_address)"
      },
      {
        "astId": 211,
        "contract": "contracts/nft.sol:nft",
        "label": "_balances",
        "offset": 0,
        "slot": "3",
        "type": "t_mapping(t_address,t_uint256)"
      },
      {
        "astId": 215,
        "contract": "contracts/nft.sol:nft",
        "label": "_tokenApprovals",
        "offset": 0,
        "slot": "4",
        "type": "t_mapping(t_uint256,t_address)"
      },
      {
        "astId": 221,
        "contract": "contracts/nft.sol:nft",
        "label": "_operatorApprovals",
        "offset": 0,
        "slot": "5",
        "type": "t_mapping(t_address,t_mapping(t_address,t_bool))"
      },
      {
        "astId": 1340,
        "contract": "contracts/nft.sol:nft",
        "label": "_tokenURIs",
        "offset": 0,
        "slot": "6",
        "type": "t_mapping(t_uint256,t_string_storage)"
      },
      {
        "astId": 3069,
        "contract": "contracts/nft.sol:nft",
        "label": "tokenCounter",
        "offset": 0,
        "slot": "7",
        "type": "t_uint256"
      }
    ],
    "types": {
      "t_address": {
        "encoding": "inplace",
        "label": "address",
        "numberOfBytes": "20"
      },
      "t_bool": {
        "encoding": "inplace",
        "label": "bool",
        "numberOfBytes": "1"
      },
      "t_mapping(t_address,t_bool)": {
        "encoding": "mapping",
        "key": "t_address",
        "label": "mapping(address => bool)",
        "numberOfBytes": "32",
        "value": "t_bool"
      },
      "t_mapping(t_address,t_mapping(t_address,t_bool))": {
        "encoding": "mapping",
        "key": "t_address",
        "label": "mapping(address => mapping(address => bool))",
        "numberOfBytes": "32",
        "value": "t_mapping(t_address,t_bool)"
      },
      "t_mapping(t_address,t_uint256)": {
        "encoding": "mapping",
        "key": "t_address",
        "label": "mapping(address => uint256)",
        "numberOfBytes": "32",
        "value": "t_uint256"
      },
      "t_mapping(t_uint256,t_address)": {
        "encoding": "mapping",
        "key": "t_uint256",
        "label": "mapping(uint256 => address)",
        "numberOfBytes": "32",
        "value": "t_address"
      },
      "t_mapping(t_uint256,t_string_storage)": {
        "encoding": "mapping",
        "key": "t_uint256",
        "label": "mapping(uint256 => string)",
        "numberOfBytes": "32",
        "value": "t_string_storage"
      },
      "t_string_storage": {
        "encoding": "bytes",
        "label": "string",
        "numberOfBytes": "32"
      },
      "t_uint256": {
        "encoding": "inplace",
        "label": "uint256",
        "numberOfBytes": "32"
      }
    }
  }
}