{
  "address": "0x18c754f61d17609FE2117CF2C4e7e3B4aE7FaD09",
  "abi": [
    {
      "inputs": [],
      "stateMutability": "nonpayable",
      "type": "constructor"
    },
    {
      "inputs": [
        {
          "internalType": "address",
          "name": "sender",
          "type": "address"
        },
        {
          "internalType": "uint256",
          "name": "tokenId",
          "type": "uint256"
        },
        {
          "internalType": "address",
          "name": "owner",
          "type": "address"
        }
      ],
      "name": "ERC721IncorrectOwner",
      "type": "error"
    },
    {
      "inputs": [
        {
          "internalType": "address",
          "name": "operator",
          "type": "address"
        },
        {
          "internalType": "uint256",
          "name": "tokenId",
          "type": "uint256"
        }
      ],
      "name": "ERC721InsufficientApproval",
      "type": "error"
    },
    {
      "inputs": [
        {
          "internalType": "address",
          "name": "approver",
          "type": "address"
        }
      ],
      "name": "ERC721InvalidApprover",
      "type": "error"
    },
    {
      "inputs": [
        {
          "internalType": "address",
          "name": "operator",
          "type": "address"
        }
      ],
      "name": "ERC721InvalidOperator",
      "type": "error"
    },
    {
      "inputs": [
        {
          "internalType": "address",
          "name": "owner",
          "type": "address"
        }
      ],
      "name": "ERC721InvalidOwner",
      "type": "error"
    },
    {
      "inputs": [
        {
          "internalType": "address",
          "name": "receiver",
          "type": "address"
        }
      ],
      "name": "ERC721InvalidReceiver",
      "type": "error"
    },
    {
      "inputs": [
        {
          "internalType": "address",
          "name": "sender",
          "type": "address"
        }
      ],
      "name": "ERC721InvalidSender",
      "type": "error"
    },
    {
      "inputs": [
        {
          "internalType": "uint256",
          "name": "tokenId",
          "type": "uint256"
        }
      ],
      "name": "ERC721NonexistentToken",
      "type": "error"
    },
    {
      "anonymous": false,
      "inputs": [
        {
          "indexed": true,
          "internalType": "address",
          "name": "owner",
          "type": "address"
        },
        {
          "indexed": true,
          "internalType": "address",
          "name": "approved",
          "type": "address"
        },
        {
          "indexed": true,
          "internalType": "uint256",
          "name": "tokenId",
          "type": "uint256"
        }
      ],
      "name": "Approval",
      "type": "event"
    },
    {
      "anonymous": false,
      "inputs": [
        {
          "indexed": true,
          "internalType": "address",
          "name": "owner",
          "type": "address"
        },
        {
          "indexed": true,
          "internalType": "address",
          "name": "operator",
          "type": "address"
        },
        {
          "indexed": false,
          "internalType": "bool",
          "name": "approved",
          "type": "bool"
        }
      ],
      "name": "ApprovalForAll",
      "type": "event"
    },
    {
      "anonymous": false,
      "inputs": [
        {
          "indexed": false,
          "internalType": "uint256",
          "name": "_fromTokenId",
          "type": "uint256"
        },
        {
          "indexed": false,
          "internalType": "uint256",
          "name": "_toTokenId",
          "type": "uint256"
        }
      ],
      "name": "BatchMetadataUpdate",
      "type": "event"
    },
    {
      "anonymous": false,
      "inputs": [
        {
          "indexed": true,
          "internalType": "uint256",
          "name": "tokenId",
          "type": "uint256"
        },
        {
          "indexed": false,
          "internalType": "string",
          "name": "tokenURI",
          "type": "string"
        }
      ],
      "name": "CreateNFT",
      "type": "event"
    },
    {
      "anonymous": false,
      "inputs": [
        {
          "indexed": false,
          "internalType": "uint256",
          "name": "_tokenId",
          "type": "uint256"
        }
      ],
      "name": "MetadataUpdate",
      "type": "event"
    },
    {
      "anonymous": false,
      "inputs": [
        {
          "indexed": true,
          "internalType": "address",
          "name": "from",
          "type": "address"
        },
        {
          "indexed": true,
          "internalType": "address",
          "name": "to",
          "type": "address"
        },
        {
          "indexed": true,
          "internalType": "uint256",
          "name": "tokenId",
          "type": "uint256"
        }
      ],
      "name": "Transfer",
      "type": "event"
    },
    {
      "inputs": [
        {
          "internalType": "address",
          "name": "to",
          "type": "address"
        },
        {
          "internalType": "uint256",
          "name": "tokenId",
          "type": "uint256"
        }
      ],
      "name": "approve",
      "outputs": [],
      "stateMutability": "nonpayable",
      "type": "function"
    },
    {
      "inputs": [
        {
          "internalType": "address",
          "name": "owner",
          "type": "address"
        }
      ],
      "name": "balanceOf",
      "outputs": [
        {
          "internalType": "uint256",
          "name": "",
          "type": "uint256"
        }
      ],
      "stateMutability": "view",
      "type": "function"
    },
    {
      "inputs": [],
      "name": "create",
      "outputs": [],
      "stateMutability": "nonpayable",
      "type": "function"
    },
    {
      "inputs": [
        {
          "internalType": "string",
          "name": "_imageURI",
          "type": "string"
        },
        {
          "internalType": "string",
          "name": "color",
          "type": "string"
        }
      ],
      "name": "formatTokenURI",
      "outputs": [
        {
          "internalType": "string",
          "name": "",
          "type": "string"
        }
      ],
      "stateMutability": "pure",
      "type": "function"
    },
    {
      "inputs": [
        {
          "internalType": "uint256",
          "name": "tokenId",
          "type": "uint256"
        }
      ],
      "name": "getApproved",
      "outputs": [
        {
          "internalType": "address",
          "name": "",
          "type": "address"
        }
      ],
      "stateMutability": "view",
      "type": "function"
    },
    {
      "inputs": [
        {
          "internalType": "address",
          "name": "owner",
          "type": "address"
        },
        {
          "internalType": "address",
          "name": "operator",
          "type": "address"
        }
      ],
      "name": "isApprovedForAll",
      "outputs": [
        {
          "internalType": "bool",
          "name": "",
          "type": "bool"
        }
      ],
      "stateMutability": "view",
      "type": "function"
    },
    {
      "inputs": [],
      "name": "name",
      "outputs": [
        {
          "internalType": "string",
          "name": "",
          "type": "string"
        }
      ],
      "stateMutability": "view",
      "type": "function"
    },
    {
      "inputs": [
        {
          "internalType": "uint256",
          "name": "tokenId",
          "type": "uint256"
        }
      ],
      "name": "ownerOf",
      "outputs": [
        {
          "internalType": "address",
          "name": "",
          "type": "address"
        }
      ],
      "stateMutability": "view",
      "type": "function"
    },
    {
      "inputs": [
        {
          "internalType": "address",
          "name": "from",
          "type": "address"
        },
        {
          "internalType": "address",
          "name": "to",
          "type": "address"
        },
        {
          "internalType": "uint256",
          "name": "tokenId",
          "type": "uint256"
        }
      ],
      "name": "safeTransferFrom",
      "outputs": [],
      "stateMutability": "nonpayable",
      "type": "function"
    },
    {
      "inputs": [
        {
          "internalType": "address",
          "name": "from",
          "type": "address"
        },
        {
          "internalType": "address",
          "name": "to",
          "type": "address"
        },
        {
          "internalType": "uint256",
          "name": "tokenId",
          "type": "uint256"
        },
        {
          "internalType": "bytes",
          "name": "data",
          "type": "bytes"
        }
      ],
      "name": "safeTransferFrom",
      "outputs": [],
      "stateMutability": "nonpayable",
      "type": "function"
    },
    {
      "inputs": [
        {
          "internalType": "address",
          "name": "operator",
          "type": "address"
        },
        {
          "internalType": "bool",
          "name": "approved",
          "type": "bool"
        }
      ],
      "name": "setApprovalForAll",
      "outputs": [],
      "stateMutability": "nonpayable",
      "type": "function"
    },
    {
      "inputs": [
        {
          "internalType": "bytes4",
          "name": "interfaceId",
          "type": "bytes4"
        }
      ],
      "name": "supportsInterface",
      "outputs": [
        {
          "internalType": "bool",
          "name": "",
          "type": "bool"
        }
      ],
      "stateMutability": "view",
      "type": "function"
    },
    {
      "inputs": [
        {
          "internalType": "string",
          "name": "_svg",
          "type": "string"
        }
      ],
      "name": "svgToURI",
      "outputs": [
        {
          "internalType": "string",
          "name": "",
          "type": "string"
        }
      ],
      "stateMutability": "pure",
      "type": "function"
    },
    {
      "inputs": [],
      "name": "symbol",
      "outputs": [
        {
          "internalType": "string",
          "name": "",
          "type": "string"
        }
      ],
      "stateMutability": "view",
      "type": "function"
    },
    {
      "inputs": [],
      "name": "tokenCounter",
      "outputs": [
        {
          "internalType": "uint256",
          "name": "",
          "type": "uint256"
        }
      ],
      "stateMutability": "view",
      "type": "function"
    },
    {
      "inputs": [
        {
          "internalType": "uint256",
          "name": "tokenId",
          "type": "uint256"
        }
      ],
      "name": "tokenURI",
      "outputs": [
        {
          "internalType": "string",
          "name": "",
          "type": "string"
        }
      ],
      "stateMutability": "view",
      "type": "function"
    },
    {
      "inputs": [
        {
          "internalType": "address",
          "name": "from",
          "type": "address"
        },
        {
          "internalType": "address",
          "name": "to",
          "type": "address"
        },
        {
          "internalType": "uint256",
          "name": "tokenId",
          "type": "uint256"
        }
      ],
      "name": "transferFrom",
      "outputs": [],
      "stateMutability": "nonpayable",
      "type": "function"
    }
  ],
  "transactionHash": "0x8481dea285d4e3c29fcce0a7f52f1d5027de056d626977a7ef5ec9318d92da4c",
  "args": [],
  "numDeployments": 1,
  "solcInputHash": "735d6c1c50e9f1780144b52ef3207bbc",
  "bytecode": "0x60806040526040518061028001604052806040518060400160405280600381526020017f526564000000000000000000000000000000000000000000000000000000000081525081526020016040518060400160405280600581526020017f477265656e00000000000000000000000000000000000000000000000000000081525081526020016040518060400160405280600481526020017f426c75650000000000000000000000000000000000000000000000000000000081525081526020016040518060400160405280600681526020017f59656c6c6f77000000000000000000000000000000000000000000000000000081525081526020016040518060400160405280600781526020017f4d6167656e74610000000000000000000000000000000000000000000000000081525081526020016040518060400160405280600481526020017f4379616e0000000000000000000000000000000000000000000000000000000081525081526020016040518060400160405280600681526020017f507572706c65000000000000000000000000000000000000000000000000000081525081526020016040518060400160405280600681526020017f4f72616e6765000000000000000000000000000000000000000000000000000081525081526020016040518060400160405280600981526020017f4461726b477265656e000000000000000000000000000000000000000000000081525081526020016040518060400160405280600581526020017f426c61636b00000000000000000000000000000000000000000000000000000081525081526020016040518060400160405280600681526020017f4d61726f6f6e000000000000000000000000000000000000000000000000000081525081526020016040518060400160405280600481526020017f5465616c0000000000000000000000000000000000000000000000000000000081525081526020016040518060400160405280600481526020017f50696e6b0000000000000000000000000000000000000000000000000000000081525081526020016040518060400160405280600b81526020017f4c6967687459656c6c6f7700000000000000000000000000000000000000000081525081526020016040518060400160405280600a81526020017f4461726b507572706c650000000000000000000000000000000000000000000081525081526020016040518060400160405280600681526020017f546f6d61746f000000000000000000000000000000000000000000000000000081525081526020016040518060400160405280600581526020017f4b68616b6900000000000000000000000000000000000000000000000000000081525081526020016040518060400160405280600a81526020017f4461726b56696f6c65740000000000000000000000000000000000000000000081525081526020016040518060400160405280600981526020017f526f79616c426c7565000000000000000000000000000000000000000000000081525081526020016040518060400160405280600681526020017f53616c6d6f6e00000000000000000000000000000000000000000000000000008152508152506008906014620004bc9291906200056b565b50348015620004ca57600080fd5b506040518060400160405280600e81526020017f52616e646f6d20436972636c65730000000000000000000000000000000000008152506040518060400160405280600781526020017f434952434c4553000000000000000000000000000000000000000000000000008152508160009081620005489190620008d2565b5080600190816200055a9190620008d2565b5050506000600781905550620009b9565b828054828255906000526020600020908101928215620005b8579160200282015b82811115620005b7578251829081620005a69190620008d2565b50916020019190600101906200058c565b5b509050620005c79190620005cb565b5090565b5b80821115620005ef5760008181620005e59190620005f3565b50600101620005cc565b5090565b5080546200060190620006c1565b6000825580601f1062000615575062000636565b601f01602090049060005260206000209081019062000635919062000639565b5b50565b5b80821115620006545760008160009055506001016200063a565b5090565b600081519050919050565b7f4e487b7100000000000000000000000000000000000000000000000000000000600052604160045260246000fd5b7f4e487b7100000000000000000000000000000000000000000000000000000000600052602260045260246000fd5b60006002820490506001821680620006da57607f821691505b602082108103620006f057620006ef62000692565b5b50919050565b60008190508160005260206000209050919050565b60006020601f8301049050919050565b600082821b905092915050565b6000600883026200075a7fffffffffffffffffffffffffffffffffffffffffffffffffffffffffffffffff826200071b565b6200076686836200071b565b95508019841693508086168417925050509392505050565b6000819050919050565b6000819050919050565b6000620007b3620007ad620007a7846200077e565b62000788565b6200077e565b9050919050565b6000819050919050565b620007cf8362000792565b620007e7620007de82620007ba565b84845462000728565b825550505050565b600090565b620007fe620007ef565b6200080b818484620007c4565b505050565b5b81811015620008335762000827600082620007f4565b60018101905062000811565b5050565b601f82111562000882576200084c81620006f6565b62000857846200070b565b8101602085101562000867578190505b6200087f62000876856200070b565b83018262000810565b50505b505050565b600082821c905092915050565b6000620008a76000198460080262000887565b1980831691505092915050565b6000620008c2838362000894565b9150826002028217905092915050565b620008dd8262000658565b67ffffffffffffffff811115620008f957620008f862000663565b5b620009058254620006c1565b6200091282828562000837565b600060209050601f8311600181146200094a576000841562000935578287015190505b620009418582620008b4565b865550620009b1565b601f1984166200095a86620006f6565b60005b8281101562000984578489015182556001820191506020850194506020810190506200095d565b86831015620009a45784890151620009a0601f89168262000894565b8355505b6001600288020188555050505b505050505050565b612df880620009c96000396000f3fe608060405234801561001057600080fd5b506004361061010b5760003560e01c80636352211e116100a2578063b88d4fde11610071578063b88d4fde146102dc578063c87b56dd146102f8578063d082e38114610328578063e985e9c514610346578063efc81a8c146103765761010b565b80636352211e1461024257806370a082311461027257806395d89b41146102a2578063a22cb465146102c05761010b565b806323b872dd116100de57806323b872dd146101aa578063413620d4146101c657806342842e0e146101f657806356029272146102125761010b565b806301ffc9a71461011057806306fdde0314610140578063081812fc1461015e578063095ea7b31461018e575b600080fd5b61012a60048036038101906101259190611ce6565b610380565b6040516101379190611d2e565b60405180910390f35b6101486103e1565b6040516101559190611dd9565b60405180910390f35b61017860048036038101906101739190611e31565b610473565b6040516101859190611e9f565b60405180910390f35b6101a860048036038101906101a39190611ee6565b61048f565b005b6101c460048036038101906101bf9190611f26565b6104a5565b005b6101e060048036038101906101db91906120ae565b6105a7565b6040516101ed9190611dd9565b60405180910390f35b610210600480360381019061020b9190611f26565b610640565b005b61022c600480360381019061022791906120f7565b610660565b6040516102399190611dd9565b60405180910390f35b61025c60048036038101906102579190611e31565b6106f0565b6040516102699190611e9f565b60405180910390f35b61028c6004803603810190610287919061216f565b610702565b60405161029991906121ab565b60405180910390f35b6102aa6107bc565b6040516102b79190611dd9565b60405180910390f35b6102da60048036038101906102d591906121f2565b61084e565b005b6102f660048036038101906102f191906122d3565b610864565b005b610312600480360381019061030d9190611e31565b610881565b60405161031f9190611dd9565b60405180910390f35b610330610994565b60405161033d91906121ab565b60405180910390f35b610360600480360381019061035b9190612356565b61099a565b60405161036d9190611d2e565b60405180910390f35b61037e610a2e565b005b6000634906490660e01b7bffffffffffffffffffffffffffffffffffffffffffffffffffffffff1916827bffffffffffffffffffffffffffffffffffffffffffffffffffffffff191614806103da57506103d982610be0565b5b9050919050565b6060600080546103f0906123c5565b80601f016020809104026020016040519081016040528092919081815260200182805461041c906123c5565b80156104695780601f1061043e57610100808354040283529160200191610469565b820191906000526020600020905b81548152906001019060200180831161044c57829003601f168201915b5050505050905090565b600061047e82610cc2565b5061048882610d4a565b9050919050565b6104a1828261049c610d87565b610d8f565b5050565b600073ffffffffffffffffffffffffffffffffffffffff168273ffffffffffffffffffffffffffffffffffffffff16036105175760006040517f64a0ae9200000000000000000000000000000000000000000000000000000000815260040161050e9190611e9f565b60405180910390fd5b600061052b8383610526610d87565b610da1565b90508373ffffffffffffffffffffffffffffffffffffffff168173ffffffffffffffffffffffffffffffffffffffff16146105a1578382826040517f64283d7b000000000000000000000000000000000000000000000000000000008152600401610598939291906123f6565b60405180910390fd5b50505050565b606060006040518060400160405280601a81526020017f646174613a696d6167652f7376672b786d6c3b6261736536342c0000000000008152509050600061060d846040516020016105f99190612469565b604051602081830303815290604052610fbb565b905060008282604051602001610624929190612480565b6040516020818303038152906040529050809350505050919050565b61065b83838360405180602001604052806000815250610864565b505050565b606060006040518060400160405280601d81526020017f646174613a6170706c69636174696f6e2f6a736f6e3b6261736536342c0000008152509050806106c784866040516020016106b3929190612692565b604051602081830303815290604052610fbb565b6040516020016106d8929190612480565b60405160208183030381529060405291505092915050565b60006106fb82610cc2565b9050919050565b60008073ffffffffffffffffffffffffffffffffffffffff168273ffffffffffffffffffffffffffffffffffffffff16036107755760006040517f89c62b6400000000000000000000000000000000000000000000000000000000815260040161076c9190611e9f565b60405180910390fd5b600360008373ffffffffffffffffffffffffffffffffffffffff1673ffffffffffffffffffffffffffffffffffffffff168152602001908152602001600020549050919050565b6060600180546107cb906123c5565b80601f01602080910402602001604051908101604052809291908181526020018280546107f7906123c5565b80156108445780601f1061081957610100808354040283529160200191610844565b820191906000526020600020905b81548152906001019060200180831161082757829003601f168201915b5050505050905090565b610860610859610d87565b8383611133565b5050565b61086f8484846104a5565b61087b848484846112a2565b50505050565b606061088c82610cc2565b5060006006600084815260200190815260200160002080546108ad906123c5565b80601f01602080910402602001604051908101604052809291908181526020018280546108d9906123c5565b80156109265780601f106108fb57610100808354040283529160200191610926565b820191906000526020600020905b81548152906001019060200180831161090957829003601f168201915b505050505090506000610937611459565b9050600081510361094c57819250505061098f565b600082511115610981578082604051602001610969929190612480565b6040516020818303038152906040529250505061098f565b61098a84611470565b925050505b919050565b60075481565b6000600560008473ffffffffffffffffffffffffffffffffffffffff1673ffffffffffffffffffffffffffffffffffffffff16815260200190815260200160002060008373ffffffffffffffffffffffffffffffffffffffff1673ffffffffffffffffffffffffffffffffffffffff16815260200190815260200160002060009054906101000a900460ff16905092915050565b60006040518060c0016040528060868152602001612d3d60869139905060005b600880549050811015610bdc5760008260088381548110610a7257610a716126f8565b5b90600052602060002001604051602001610a8d92919061280b565b6040516020818303038152906040529050610aaa336007546114d9565b6000610ab5826105a7565b90506000610b698260088681548110610ad157610ad06126f8565b5b906000526020600020018054610ae6906123c5565b80601f0160208091040260200160405190810160405280929190818152602001828054610b12906123c5565b8015610b5f5780601f10610b3457610100808354040283529160200191610b5f565b820191906000526020600020905b815481529060010190602001808311610b4257829003601f168201915b5050505050610660565b9050610b77600754826114f7565b6001600754610b869190612869565b6007819055506007547f8b774dfb330dc374de534c7da76fe3cec54fb54815b53ab7a38dc3d73eba764082604051610bbe9190611dd9565b60405180910390a25050508080610bd49061289d565b915050610a4e565b5050565b60007f80ac58cd000000000000000000000000000000000000000000000000000000007bffffffffffffffffffffffffffffffffffffffffffffffffffffffff1916827bffffffffffffffffffffffffffffffffffffffffffffffffffffffff19161480610cab57507f5b5e139f000000000000000000000000000000000000000000000000000000007bffffffffffffffffffffffffffffffffffffffffffffffffffffffff1916827bffffffffffffffffffffffffffffffffffffffffffffffffffffffff1916145b80610cbb5750610cba82611553565b5b9050919050565b600080610cce836115bd565b9050600073ffffffffffffffffffffffffffffffffffffffff168173ffffffffffffffffffffffffffffffffffffffff1603610d4157826040517f7e273289000000000000000000000000000000000000000000000000000000008152600401610d3891906121ab565b60405180910390fd5b80915050919050565b60006004600083815260200190815260200160002060009054906101000a900473ffffffffffffffffffffffffffffffffffffffff169050919050565b600033905090565b610d9c83838360016115fa565b505050565b600080610dad846115bd565b9050600073ffffffffffffffffffffffffffffffffffffffff168373ffffffffffffffffffffffffffffffffffffffff1614610def57610dee8184866117bf565b5b600073ffffffffffffffffffffffffffffffffffffffff168173ffffffffffffffffffffffffffffffffffffffff1614610e8057610e316000856000806115fa565b6001600360008373ffffffffffffffffffffffffffffffffffffffff1673ffffffffffffffffffffffffffffffffffffffff168152602001908152602001600020600082825403925050819055505b600073ffffffffffffffffffffffffffffffffffffffff168573ffffffffffffffffffffffffffffffffffffffff1614610f03576001600360008773ffffffffffffffffffffffffffffffffffffffff1673ffffffffffffffffffffffffffffffffffffffff168152602001908152602001600020600082825401925050819055505b846002600086815260200190815260200160002060006101000a81548173ffffffffffffffffffffffffffffffffffffffff021916908373ffffffffffffffffffffffffffffffffffffffff160217905550838573ffffffffffffffffffffffffffffffffffffffff168273ffffffffffffffffffffffffffffffffffffffff167fddf252ad1be2c89b69c2b068fc378daa952ba7f163c4a11628f55a4df523b3ef60405160405180910390a4809150509392505050565b60606000825103610fdd5760405180602001604052806000815250905061112e565b6000604051806060016040528060408152602001612cfd604091399050600060036002855161100c9190612869565b6110169190612914565b60046110229190612945565b905060006020826110339190612869565b67ffffffffffffffff81111561104c5761104b611f83565b5b6040519080825280601f01601f19166020018201604052801561107e5781602001600182028036833780820191505090505b509050818152600183018586518101602084015b818310156110ed576003830192508251603f8160121c168501518253600182019150603f81600c1c168501518253600182019150603f8160061c168501518253600182019150603f8116850151825360018201915050611092565b600389510660018114611107576002811461111757611122565b613d3d60f01b6002830352611122565b603d60f81b60018303525b50505050508093505050505b919050565b600073ffffffffffffffffffffffffffffffffffffffff168273ffffffffffffffffffffffffffffffffffffffff16036111a457816040517f5b08ba1800000000000000000000000000000000000000000000000000000000815260040161119b9190611e9f565b60405180910390fd5b80600560008573ffffffffffffffffffffffffffffffffffffffff1673ffffffffffffffffffffffffffffffffffffffff16815260200190815260200160002060008473ffffffffffffffffffffffffffffffffffffffff1673ffffffffffffffffffffffffffffffffffffffff16815260200190815260200160002060006101000a81548160ff0219169083151502179055508173ffffffffffffffffffffffffffffffffffffffff168373ffffffffffffffffffffffffffffffffffffffff167f17307eab39ab6107e8899845ad3d59bd9653f200f220920489ca2b5937696c31836040516112959190611d2e565b60405180910390a3505050565b60008373ffffffffffffffffffffffffffffffffffffffff163b1115611453578273ffffffffffffffffffffffffffffffffffffffff1663150b7a026112e6610d87565b8685856040518563ffffffff1660e01b815260040161130894939291906129dc565b6020604051808303816000875af192505050801561134457506040513d601f19601f820116820180604052508101906113419190612a3d565b60015b6113c8573d8060008114611374576040519150601f19603f3d011682016040523d82523d6000602084013e611379565b606091505b5060008151036113c057836040517f64a0ae920000000000000000000000000000000000000000000000000000000081526004016113b79190611e9f565b60405180910390fd5b805181602001fd5b63150b7a0260e01b7bffffffffffffffffffffffffffffffffffffffffffffffffffffffff1916817bffffffffffffffffffffffffffffffffffffffffffffffffffffffff19161461145157836040517f64a0ae920000000000000000000000000000000000000000000000000000000081526004016114489190611e9f565b60405180910390fd5b505b50505050565b606060405180602001604052806000815250905090565b606061147b82610cc2565b506000611486611459565b905060008151116114a657604051806020016040528060008152506114d1565b806114b084611883565b6040516020016114c1929190612480565b6040516020818303038152906040525b915050919050565b6114f3828260405180602001604052806000815250611951565b5050565b806006600084815260200190815260200160002090816115179190612c01565b507ff8e1a15aba9398e019f0b49df1a4fde98ee17ae345cb5f6b5e2c27f5033e8ce78260405161154791906121ab565b60405180910390a15050565b60007f01ffc9a7000000000000000000000000000000000000000000000000000000007bffffffffffffffffffffffffffffffffffffffffffffffffffffffff1916827bffffffffffffffffffffffffffffffffffffffffffffffffffffffff1916149050919050565b60006002600083815260200190815260200160002060009054906101000a900473ffffffffffffffffffffffffffffffffffffffff169050919050565b80806116335750600073ffffffffffffffffffffffffffffffffffffffff168273ffffffffffffffffffffffffffffffffffffffff1614155b1561176757600061164384610cc2565b9050600073ffffffffffffffffffffffffffffffffffffffff168373ffffffffffffffffffffffffffffffffffffffff16141580156116ae57508273ffffffffffffffffffffffffffffffffffffffff168173ffffffffffffffffffffffffffffffffffffffff1614155b80156116c157506116bf818461099a565b155b1561170357826040517fa9fbf51f0000000000000000000000000000000000000000000000000000000081526004016116fa9190611e9f565b60405180910390fd5b811561176557838573ffffffffffffffffffffffffffffffffffffffff168273ffffffffffffffffffffffffffffffffffffffff167f8c5be1e5ebec7d5bd14f71427d1e84f3dd0314c0f7b2291e5b200ac8c7c3b92560405160405180910390a45b505b836004600085815260200190815260200160002060006101000a81548173ffffffffffffffffffffffffffffffffffffffff021916908373ffffffffffffffffffffffffffffffffffffffff16021790555050505050565b6117ca83838361196d565b61187e57600073ffffffffffffffffffffffffffffffffffffffff168373ffffffffffffffffffffffffffffffffffffffff160361183f57806040517f7e27328900000000000000000000000000000000000000000000000000000000815260040161183691906121ab565b60405180910390fd5b81816040517f177e802f000000000000000000000000000000000000000000000000000000008152600401611875929190612cd3565b60405180910390fd5b505050565b60606000600161189284611a2e565b01905060008167ffffffffffffffff8111156118b1576118b0611f83565b5b6040519080825280601f01601f1916602001820160405280156118e35781602001600182028036833780820191505090505b509050600082602001820190505b600115611946578080600190039150507f3031323334353637383961626364656600000000000000000000000000000000600a86061a8153600a858161193a576119396128e5565b5b049450600085036118f1575b819350505050919050565b61195b8383611b81565b61196860008484846112a2565b505050565b60008073ffffffffffffffffffffffffffffffffffffffff168373ffffffffffffffffffffffffffffffffffffffff1614158015611a2557508273ffffffffffffffffffffffffffffffffffffffff168473ffffffffffffffffffffffffffffffffffffffff1614806119e657506119e5848461099a565b5b80611a2457508273ffffffffffffffffffffffffffffffffffffffff16611a0c83610d4a565b73ffffffffffffffffffffffffffffffffffffffff16145b5b90509392505050565b600080600090507a184f03e93ff9f4daa797ed6e38ed64bf6a1f0100000000000000008310611a8c577a184f03e93ff9f4daa797ed6e38ed64bf6a1f0100000000000000008381611a8257611a816128e5565b5b0492506040810190505b6d04ee2d6d415b85acef81000000008310611ac9576d04ee2d6d415b85acef81000000008381611abf57611abe6128e5565b5b0492506020810190505b662386f26fc100008310611af857662386f26fc100008381611aee57611aed6128e5565b5b0492506010810190505b6305f5e1008310611b21576305f5e1008381611b1757611b166128e5565b5b0492506008810190505b6127108310611b46576127108381611b3c57611b3b6128e5565b5b0492506004810190505b60648310611b695760648381611b5f57611b5e6128e5565b5b0492506002810190505b600a8310611b78576001810190505b80915050919050565b600073ffffffffffffffffffffffffffffffffffffffff168273ffffffffffffffffffffffffffffffffffffffff1603611bf35760006040517f64a0ae92000000000000000000000000000000000000000000000000000000008152600401611bea9190611e9f565b60405180910390fd5b6000611c0183836000610da1565b9050600073ffffffffffffffffffffffffffffffffffffffff168173ffffffffffffffffffffffffffffffffffffffff1614611c755760006040517f73c6ac6e000000000000000000000000000000000000000000000000000000008152600401611c6c9190611e9f565b60405180910390fd5b505050565b6000604051905090565b600080fd5b600080fd5b60007fffffffff0000000000000000000000000000000000000000000000000000000082169050919050565b611cc381611c8e565b8114611cce57600080fd5b50565b600081359050611ce081611cba565b92915050565b600060208284031215611cfc57611cfb611c84565b5b6000611d0a84828501611cd1565b91505092915050565b60008115159050919050565b611d2881611d13565b82525050565b6000602082019050611d436000830184611d1f565b92915050565b600081519050919050565b600082825260208201905092915050565b60005b83811015611d83578082015181840152602081019050611d68565b60008484015250505050565b6000601f19601f8301169050919050565b6000611dab82611d49565b611db58185611d54565b9350611dc5818560208601611d65565b611dce81611d8f565b840191505092915050565b60006020820190508181036000830152611df38184611da0565b905092915050565b6000819050919050565b611e0e81611dfb565b8114611e1957600080fd5b50565b600081359050611e2b81611e05565b92915050565b600060208284031215611e4757611e46611c84565b5b6000611e5584828501611e1c565b91505092915050565b600073ffffffffffffffffffffffffffffffffffffffff82169050919050565b6000611e8982611e5e565b9050919050565b611e9981611e7e565b82525050565b6000602082019050611eb46000830184611e90565b92915050565b611ec381611e7e565b8114611ece57600080fd5b50565b600081359050611ee081611eba565b92915050565b60008060408385031215611efd57611efc611c84565b5b6000611f0b85828601611ed1565b9250506020611f1c85828601611e1c565b9150509250929050565b600080600060608486031215611f3f57611f3e611c84565b5b6000611f4d86828701611ed1565b9350506020611f5e86828701611ed1565b9250506040611f6f86828701611e1c565b9150509250925092565b600080fd5b600080fd5b7f4e487b7100000000000000000000000000000000000000000000000000000000600052604160045260246000fd5b611fbb82611d8f565b810181811067ffffffffffffffff82111715611fda57611fd9611f83565b5b80604052505050565b6000611fed611c7a565b9050611ff98282611fb2565b919050565b600067ffffffffffffffff82111561201957612018611f83565b5b61202282611d8f565b9050602081019050919050565b82818337600083830152505050565b600061205161204c84611ffe565b611fe3565b90508281526020810184848401111561206d5761206c611f7e565b5b61207884828561202f565b509392505050565b600082601f83011261209557612094611f79565b5b81356120a584826020860161203e565b91505092915050565b6000602082840312156120c4576120c3611c84565b5b600082013567ffffffffffffffff8111156120e2576120e1611c89565b5b6120ee84828501612080565b91505092915050565b6000806040838503121561210e5761210d611c84565b5b600083013567ffffffffffffffff81111561212c5761212b611c89565b5b61213885828601612080565b925050602083013567ffffffffffffffff81111561215957612158611c89565b5b61216585828601612080565b9150509250929050565b60006020828403121561218557612184611c84565b5b600061219384828501611ed1565b91505092915050565b6121a581611dfb565b82525050565b60006020820190506121c0600083018461219c565b92915050565b6121cf81611d13565b81146121da57600080fd5b50565b6000813590506121ec816121c6565b92915050565b6000806040838503121561220957612208611c84565b5b600061221785828601611ed1565b9250506020612228858286016121dd565b9150509250929050565b600067ffffffffffffffff82111561224d5761224c611f83565b5b61225682611d8f565b9050602081019050919050565b600061227661227184612232565b611fe3565b90508281526020810184848401111561229257612291611f7e565b5b61229d84828561202f565b509392505050565b600082601f8301126122ba576122b9611f79565b5b81356122ca848260208601612263565b91505092915050565b600080600080608085870312156122ed576122ec611c84565b5b60006122fb87828801611ed1565b945050602061230c87828801611ed1565b935050604061231d87828801611e1c565b925050606085013567ffffffffffffffff81111561233e5761233d611c89565b5b61234a878288016122a5565b91505092959194509250565b6000806040838503121561236d5761236c611c84565b5b600061237b85828601611ed1565b925050602061238c85828601611ed1565b9150509250929050565b7f4e487b7100000000000000000000000000000000000000000000000000000000600052602260045260246000fd5b600060028204905060018216806123dd57607f821691505b6020821081036123f0576123ef612396565b5b50919050565b600060608201905061240b6000830186611e90565b612418602083018561219c565b6124256040830184611e90565b949350505050565b600081905092915050565b600061244382611d49565b61244d818561242d565b935061245d818560208601611d65565b80840191505092915050565b60006124758284612438565b915081905092915050565b600061248c8285612438565b91506124988284612438565b91508190509392505050565b7f7b226e616d65223a202200000000000000000000000000000000000000000000600082015250565b60006124da600a8361242d565b91506124e5826124a4565b600a82019050919050565b7f2052616e646f6d20436972636c65222c00000000000000000000000000000000600082015250565b600061252660108361242d565b9150612531826124f0565b601082019050919050565b7f226465736372697074696f6e223a202252616e646f6d20436972636c6573206360008201527f6f6c6c656374696f6e222c000000000000000000000000000000000000000000602082015250565b6000612598602b8361242d565b91506125a38261253c565b602b82019050919050565b7f2261747472696275746573223a2022222c000000000000000000000000000000600082015250565b60006125e460118361242d565b91506125ef826125ae565b601182019050919050565b7f22696d616765223a202200000000000000000000000000000000000000000000600082015250565b6000612630600a8361242d565b915061263b826125fa565b600a82019050919050565b7f227d000000000000000000000000000000000000000000000000000000000000600082015250565b600061267c60028361242d565b915061268782612646565b600282019050919050565b600061269d826124cd565b91506126a98285612438565b91506126b482612519565b91506126bf8261258b565b91506126ca826125d7565b91506126d582612623565b91506126e18284612438565b91506126ec8261266f565b91508190509392505050565b7f4e487b7100000000000000000000000000000000000000000000000000000000600052603260045260246000fd5b60008190508160005260206000209050919050565b60008154612749816123c5565b612753818661242d565b9450600182166000811461276e5760018114612783576127b6565b60ff19831686528115158202860193506127b6565b61278c85612727565b60005b838110156127ae5781548189015260018201915060208101905061278f565b838801955050505b50505092915050565b7f27202f3e3c2f7376673e00000000000000000000000000000000000000000000600082015250565b60006127f5600a8361242d565b9150612800826127bf565b600a82019050919050565b60006128178285612438565b9150612823828461273c565b915061282e826127e8565b91508190509392505050565b7f4e487b7100000000000000000000000000000000000000000000000000000000600052601160045260246000fd5b600061287482611dfb565b915061287f83611dfb565b92508282019050808211156128975761289661283a565b5b92915050565b60006128a882611dfb565b91507fffffffffffffffffffffffffffffffffffffffffffffffffffffffffffffffff82036128da576128d961283a565b5b600182019050919050565b7f4e487b7100000000000000000000000000000000000000000000000000000000600052601260045260246000fd5b600061291f82611dfb565b915061292a83611dfb565b92508261293a576129396128e5565b5b828204905092915050565b600061295082611dfb565b915061295b83611dfb565b925082820261296981611dfb565b915082820484148315176129805761297f61283a565b5b5092915050565b600081519050919050565b600082825260208201905092915050565b60006129ae82612987565b6129b88185612992565b93506129c8818560208601611d65565b6129d181611d8f565b840191505092915050565b60006080820190506129f16000830187611e90565b6129fe6020830186611e90565b612a0b604083018561219c565b8181036060830152612a1d81846129a3565b905095945050505050565b600081519050612a3781611cba565b92915050565b600060208284031215612a5357612a52611c84565b5b6000612a6184828501612a28565b91505092915050565b60006020601f8301049050919050565b600082821b905092915050565b600060088302612ab77fffffffffffffffffffffffffffffffffffffffffffffffffffffffffffffffff82612a7a565b612ac18683612a7a565b95508019841693508086168417925050509392505050565b6000819050919050565b6000612afe612af9612af484611dfb565b612ad9565b611dfb565b9050919050565b6000819050919050565b612b1883612ae3565b612b2c612b2482612b05565b848454612a87565b825550505050565b600090565b612b41612b34565b612b4c818484612b0f565b505050565b5b81811015612b7057612b65600082612b39565b600181019050612b52565b5050565b601f821115612bb557612b8681612727565b612b8f84612a6a565b81016020851015612b9e578190505b612bb2612baa85612a6a565b830182612b51565b50505b505050565b600082821c905092915050565b6000612bd860001984600802612bba565b1980831691505092915050565b6000612bf18383612bc7565b9150826002028217905092915050565b612c0a82611d49565b67ffffffffffffffff811115612c2357612c22611f83565b5b612c2d82546123c5565b612c38828285612b74565b600060209050601f831160018114612c6b5760008415612c59578287015190505b612c638582612be5565b865550612ccb565b601f198416612c7986612727565b60005b82811015612ca157848901518255600182019150602085019450602081019050612c7c565b86831015612cbe5784890151612cba601f891682612bc7565b8355505b6001600288020188555050505b505050505050565b6000604082019050612ce86000830185611e90565b612cf5602083018461219c565b939250505056fe4142434445464748494a4b4c4d4e4f505152535455565758595a6162636465666768696a6b6c6d6e6f707172737475767778797a303132333435363738392b2f3c737667206865696768743d27313030272077696474683d273130302720786d6c6e733d27687474703a2f2f7777772e77332e6f72672f323030302f737667273e3c636972636c6520723d273435272063783d273530272063793d27353027207374726f6b653d27626c61636b27207374726f6b652d77696474683d2733272066696c6c3d27a26469706673582212205e2e0f879614c6d7bf20ed23a1eec88c8b1407b1a704f953cb41f3e8d37ffaf764736f6c63430008140033",
  "devdoc": {
    "errors": {
      "ERC721IncorrectOwner(address,uint256,address)": [
        {
          "details": "Indicates an error related to the ownership over a particular token. Used in transfers.",
          "params": {
            "owner": "Address of the current owner of a token.",
            "sender": "Address whose tokens are being transferred.",
            "tokenId": "Identifier number of a token."
          }
        }
      ],
      "ERC721InsufficientApproval(address,uint256)": [
        {
          "details": "Indicates a failure with the `operator`s approval. Used in transfers.",
          "params": {
            "operator": "Address that may be allowed to operate on tokens without being their owner.",
            "tokenId": "Identifier number of a token."
          }
        }
      ],
      "ERC721InvalidApprover(address)": [
        {
          "details": "Indicates a failure with the `approver` of a token to be approved. Used in approvals.",
          "params": {
            "approver": "Address initiating an approval operation."
          }
        }
      ],
      "ERC721InvalidOperator(address)": [
        {
          "details": "Indicates a failure with the `operator` to be approved. Used in approvals.",
          "params": {
            "operator": "Address that may be allowed to operate on tokens without being their owner."
          }
        }
      ],
      "ERC721InvalidOwner(address)": [
        {
          "details": "Indicates that an address can't be an owner. For example, `address(0)` is a forbidden owner in EIP-20. Used in balance queries.",
          "params": {
            "owner": "Address of the current owner of a token."
          }
        }
      ],
      "ERC721InvalidReceiver(address)": [
        {
          "details": "Indicates a failure with the token `receiver`. Used in transfers.",
          "params": {
            "receiver": "Address to which tokens are being transferred."
          }
        }
      ],
      "ERC721InvalidSender(address)": [
        {
          "details": "Indicates a failure with the token `sender`. Used in transfers.",
          "params": {
            "sender": "Address whose tokens are being transferred."
          }
        }
      ],
      "ERC721NonexistentToken(uint256)": [
        {
          "details": "Indicates a `tokenId` whose `owner` is the zero address.",
          "params": {
            "tokenId": "Identifier number of a token."
          }
        }
      ]
    },
    "events": {
      "Approval(address,address,uint256)": {
        "details": "Emitted when `owner` enables `approved` to manage the `tokenId` token."
      },
      "ApprovalForAll(address,address,bool)": {
        "details": "Emitted when `owner` enables or disables (`approved`) `operator` to manage all of its assets."
      },
      "BatchMetadataUpdate(uint256,uint256)": {
        "details": "This event emits when the metadata of a range of tokens is changed. So that the third-party platforms such as NFT market could timely update the images and related attributes of the NFTs."
      },
      "MetadataUpdate(uint256)": {
        "details": "This event emits when the metadata of a token is changed. So that the third-party platforms such as NFT market could timely update the images and related attributes of the NFT."
      },
      "Transfer(address,address,uint256)": {
        "details": "Emitted when `tokenId` token is transferred from `from` to `to`."
      }
    },
    "kind": "dev",
    "methods": {
      "approve(address,uint256)": {
        "details": "See {IERC721-approve}."
      },
      "balanceOf(address)": {
        "details": "See {IERC721-balanceOf}."
      },
      "getApproved(uint256)": {
        "details": "See {IERC721-getApproved}."
      },
      "isApprovedForAll(address,address)": {
        "details": "See {IERC721-isApprovedForAll}."
      },
      "name()": {
        "details": "See {IERC721Metadata-name}."
      },
      "ownerOf(uint256)": {
        "details": "See {IERC721-ownerOf}."
      },
      "safeTransferFrom(address,address,uint256)": {
        "details": "See {IERC721-safeTransferFrom}."
      },
      "safeTransferFrom(address,address,uint256,bytes)": {
        "details": "See {IERC721-safeTransferFrom}."
      },
      "setApprovalForAll(address,bool)": {
        "details": "See {IERC721-setApprovalForAll}."
      },
      "supportsInterface(bytes4)": {
        "details": "See {IERC165-supportsInterface}"
      },
      "symbol()": {
        "details": "See {IERC721Metadata-symbol}."
      },
      "tokenURI(uint256)": {
        "details": "See {IERC721Metadata-tokenURI}."
      },
      "transferFrom(address,address,uint256)": {
        "details": "See {IERC721-transferFrom}."
      }
    },
    "version": 1
  },
  "userdoc": {
    "kind": "user",
    "methods": {},
    "version": 1
  },
  "storageLayout": {
    "storage": [
      {
        "astId": 201,
        "contract": "contracts/nft.sol:nftV2",
        "label": "_name",
        "offset": 0,
        "slot": "0",
        "type": "t_string_storage"
      },
      {
        "astId": 203,
        "contract": "contracts/nft.sol:nftV2",
        "label": "_symbol",
        "offset": 0,
        "slot": "1",
        "type": "t_string_storage"
      },
      {
        "astId": 207,
        "contract": "contracts/nft.sol:nftV2",
        "label": "_owners",
        "offset": 0,
        "slot": "2",
        "type": "t_mapping(t_uint256,t_address)"
      },
      {
        "astId": 211,
        "contract": "contracts/nft.sol:nftV2",
        "label": "_balances",
        "offset": 0,
        "slot": "3",
        "type": "t_mapping(t_address,t_uint256)"
      },
      {
        "astId": 215,
        "contract": "contracts/nft.sol:nftV2",
        "label": "_tokenApprovals",
        "offset": 0,
        "slot": "4",
        "type": "t_mapping(t_uint256,t_address)"
      },
      {
        "astId": 221,
        "contract": "contracts/nft.sol:nftV2",
        "label": "_operatorApprovals",
        "offset": 0,
        "slot": "5",
        "type": "t_mapping(t_address,t_mapping(t_address,t_bool))"
      },
      {
        "astId": 1340,
        "contract": "contracts/nft.sol:nftV2",
        "label": "_tokenURIs",
        "offset": 0,
        "slot": "6",
        "type": "t_mapping(t_uint256,t_string_storage)"
      },
      {
        "astId": 3069,
        "contract": "contracts/nft.sol:nftV2",
        "label": "tokenCounter",
        "offset": 0,
        "slot": "7",
        "type": "t_uint256"
      },
      {
        "astId": 3111,
        "contract": "contracts/nft.sol:nftV2",
        "label": "colors",
        "offset": 0,
        "slot": "8",
        "type": "t_array(t_string_storage)dyn_storage"
      }
    ],
    "types": {
      "t_address": {
        "encoding": "inplace",
        "label": "address",
        "numberOfBytes": "20"
      },
      "t_array(t_string_storage)dyn_storage": {
        "base": "t_string_storage",
        "encoding": "dynamic_array",
        "label": "string[]",
        "numberOfBytes": "32"
      },
      "t_bool": {
        "encoding": "inplace",
        "label": "bool",
        "numberOfBytes": "1"
      },
      "t_mapping(t_address,t_bool)": {
        "encoding": "mapping",
        "key": "t_address",
        "label": "mapping(address => bool)",
        "numberOfBytes": "32",
        "value": "t_bool"
      },
      "t_mapping(t_address,t_mapping(t_address,t_bool))": {
        "encoding": "mapping",
        "key": "t_address",
        "label": "mapping(address => mapping(address => bool))",
        "numberOfBytes": "32",
        "value": "t_mapping(t_address,t_bool)"
      },
      "t_mapping(t_address,t_uint256)": {
        "encoding": "mapping",
        "key": "t_address",
        "label": "mapping(address => uint256)",
        "numberOfBytes": "32",
        "value": "t_uint256"
      },
      "t_mapping(t_uint256,t_address)": {
        "encoding": "mapping",
        "key": "t_uint256",
        "label": "mapping(uint256 => address)",
        "numberOfBytes": "32",
        "value": "t_address"
      },
      "t_mapping(t_uint256,t_string_storage)": {
        "encoding": "mapping",
        "key": "t_uint256",
        "label": "mapping(uint256 => string)",
        "numberOfBytes": "32",
        "value": "t_string_storage"
      },
      "t_string_storage": {
        "encoding": "bytes",
        "label": "string",
        "numberOfBytes": "32"
      },
      "t_uint256": {
        "encoding": "inplace",
        "label": "uint256",
        "numberOfBytes": "32"
      }
    }
  }
}